:020000040800F2
:100000000000022071220008811B0008891B0008E3
:100010008B1B00088D1B00088F1B000800000000D0
:10002000000000000000000000000000911B00081C
:10003000931B000800000000951B0008971B000898
:10004000C1220008C1220008C1220008C122000804
:10005000C1220008C1220008C1220008C1220008F4
:10006000C12200089F1B0008C1220008C12200080D
:10007000C1220008C1220008C1220008C1220008D4
:10008000C1220008C1220008C1220008C1220008C4
:10009000C1220008C1220008C1220008A91B0008D3
:1000A000C1220008C1220008C1220008C1220008A4
:1000B000C1220008C1220008C1220008C122000894
:1000C000C1220008C1220008C1220008C122000884
:1000D000C1220008C1220008C1220008C122000874
:1000E000C1220008C1220008C1220008C122000864
:1000F000C1220008C1220008C1220008C122000854
:10010000C1220008C1220008C1220008C122000843
:10011000C1220008C1220008C1220008C122000833
:10012000B51B0008C1220008C51B0008C122000839
:10013000C1220008C1220008C1220008C122000813
:10014000C1220008C1220008C1220008C122000803
:10015000C1220008C1220008C1220008C1220008F3
:10016000C1220008C1220008C1220008C1220008E3
:10017000C1220008C1220008C122000800000000BE
:08018000C1220008C1220008A1
:1001C00010B5054C237833B9044B13B10448AFF391
:1001D00000800123237010BDB8090020000000003A
:1001E000A0A9000808B5034B1BB103490348AFF3AE
:1001F000008008BD00000000BC090020A0A9000884
:1002000081F0004102E000BF83F0004330B54FEAC7
:1002100041044FEA430594EA050F08BF90EA020F34
:100220001FBF54EA000C55EA020C7FEA645C7FEAC7
:10023000655C00F0E2804FEA5454D4EB5555B8BFEA
:100240006D420CDD2C4480EA020281EA030382EA5B
:10025000000083EA010180EA020281EA0303362DED
:1002600088BF30BD11F0004F4FEA01314FF4801CC0
:100270004CEA113102D0404261EB410113F0004FD2
:100280004FEA03334CEA133302D0524263EB430389
:1002900094EA050F00F0A780A4F10104D5F1200E27
:1002A0000DDB02FA0EFC22FA05F2801841F1000182
:1002B00003FA0EF2801843FA05F359410EE0A5F156
:1002C00020050EF1200E012A03FA0EFC28BF4CF087
:1002D000020C43FA05F3C01851EBE37101F000453D
:1002E00007D54FF0000EDCF1000C7EEB00006EEB4A
:1002F0000101B1F5801F1BD3B1F5001F0CD34908D4
:100300005FEA30004FEA3C0C04F101044FEA44522A
:1003100012F5800F80F09A80BCF1004F08BF5FEAB1
:10032000500C50F1000041EB045141EA050130BD91
:100330005FEA4C0C404141EB0101013C28BFB1F5A3
:10034000801FE9D291F0000F04BF01460020B1FAEE
:1003500081F308BF2033A3F10B03B3F120020CDAC1
:100360000C3208DD02F1140CC2F10C0201FA0CF09F
:1003700021FA02F10CE002F11402D8BFC2F1200C04
:1003800001FA02F120FA0CFCDCBF41EA0C019040BA
:10039000E41AA2BF01EB0451294330BD6FEA040403
:1003A0001F3C1CDA0C340EDC04F11404C4F12002EE
:1003B00020FA04F001FA02F340EA030021FA04F300
:1003C00045EA030130BDC4F10C04C4F1200220FA57
:1003D00002F001FA04F340EA0300294630BD21FA95
:1003E00004F0294630BD94F0000F83F4801306BF5B
:1003F00081F480110134013D4EE77FEA645C18BF4F
:100400007FEA655C29D094EA050F08BF90EA020FE5
:1004100005D054EA000C04BF1946104630BD91EADD
:10042000030F1EBF0021002030BD5FEA545C05D1E0
:100430004000494128BF41F0004130BD14F580041F
:100440003CBF01F5801130BD01F0004545F0FE4193
:1004500041F470014FF0000030BD7FEA645C1ABFC8
:10046000194610467FEA655C1CBF0B46024650EAFF
:10047000013406BF52EA033591EA030F41F400212B
:1004800030BD00BF90F0000F04BF0021704730B5B1
:100490004FF4806404F132044FF000054FF0000186
:1004A00050E700BF90F0000F04BF0021704730B547
:1004B0004FF4806404F1320410F0004548BF40421C
:1004C0004FF000013EE700BF42004FEAE2014FEA71
:1004D00031014FEA02701FBF12F07F4393F07F4F4C
:1004E00081F06051704732F07F4208BF704793F04F
:1004F0007F4F04BF41F40021704730B54FF4607462
:1005000001F0004521F000411CE700BF50EA010264
:1005100008BF704730B54FF000050AE050EA01020D
:1005200008BF704730B511F0004502D5404261EB7D
:1005300041014FF4806404F132045FEA915C3FF4BE
:10054000D8AE4FF003025FEADC0C18BF03325FEA5B
:10055000DC0C18BF033202EBDC02C2F1200300FA0C
:1005600003FC20FA02F001FA03FE40EA0E0021FA31
:1005700002F11444BDE600BF70B54FF0FF0C4CF41F
:10058000E06C1CEA11541DBF1CEA135594EA0C0FD1
:1005900095EA0C0F00F0DEF82C4481EA030621EA0C
:1005A0004C5123EA4C5350EA013518BF52EA033547
:1005B00041F4801143F4801338D0A0FB02CE4FF0F9
:1005C0000005E1FB02E506F00042E0FB03E54FF029
:1005D0000006E1FB03569CF0000F18BF4EF0010E21
:1005E000A4F1FF04B6F5007F64F5407404D25FEA1D
:1005F0004E0E6D4146EB060642EAC62141EA5551D0
:100600004FEAC52040EA5E504FEACE2EB4F1FD0C11
:1006100088BFBCF5E06F1ED8BEF1004F08BF5FEA8F
:10062000500E50F1000041EB045170BD06F0004641
:1006300046EA010140EA020081EA0301B4EB5C04EE
:10064000C2BFD4EB0C0541EA045170BD41F48011E6
:100650004FF0000E013C00F3AB8014F1360FDEBF0B
:10066000002001F0004170BDC4F10004203C35DAE7
:100670000C341BDC04F11404C4F1200500FA05F36A
:1006800020FA04F001FA05F240EA020001F000420B
:1006900021F0004110EBD37021FA04F642EB060181
:1006A0005EEA430E08BF20EAD37070BDC4F10C04AB
:1006B000C4F1200500FA04F320FA05F001FA04F26F
:1006C00040EA020001F0004110EBD37041F100015B
:1006D0005EEA430E08BF20EAD37070BDC4F1200566
:1006E00000FA05F24EEA020E20FA04F301FA05F2CE
:1006F00043EA020321FA04F001F0004121FA04F276
:1007000020EA020000EBD3705EEA430E08BF20EA45
:10071000D37070BD94F0000F0FD101F0004640007F
:1007200041EB010111F4801F08BF013CF7D041EA01
:10073000060195F0000F18BF704703F00046520005
:1007400043EB030313F4801F08BF013DF7D043EAD6
:100750000603704794EA0C0F0CEA135518BF95EA8C
:100760000C0F0CD050EA410618BF52EA4306D1D113
:1007700081EA030101F000414FF0000070BD50EA32
:10078000410606BF1046194652EA430619D094EABC
:100790000C0F02D150EA013613D195EA0C0F05D1A6
:1007A00052EA03361CBF104619460AD181EA0301FA
:1007B00001F0004141F0FE4141F470014FF00000B2
:1007C00070BD41F0FE4141F4780170BD70B54FF04D
:1007D000FF0C4CF4E06C1CEA11541DBF1CEA1355CD
:1007E00094EA0C0F95EA0C0F00F0A7F8A4EB0504AF
:1007F00081EA030E52EA03354FEA013100F08880A6
:100800004FEA03334FF0805545EA131343EA12636E
:100810004FEA022245EA111545EA10654FEA002623
:100820000EF000419D4208BF964244F1FD0404F5DC
:10083000407402D25B084FEA3202B61A65EB030538
:100840005B084FEA32024FF480104FF4002CB6EBF5
:10085000020E75EB030E22BFB61A754640EA0C0075
:100860005B084FEA3202B6EB020E75EB030E22BFB5
:10087000B61A754640EA5C005B084FEA3202B6EBF6
:10088000020E75EB030E22BFB61A754640EA9C00B5
:100890005B084FEA3202B6EB020E75EB030E22BF85
:1008A000B61A754640EADC0055EA060E18D04FEA43
:1008B000051545EA16754FEA06164FEAC30343EAE3
:1008C00052734FEAC2025FEA1C1CC0D111F4801FB0
:1008D0000BD141EA00014FF000004FF0004CB6E7A9
:1008E00011F4801F04BF01430020B4F1FD0C88BF48
:1008F000BCF5E06F3FF6AFAEB5EB030C04BFB6EB53
:10090000020C5FEA500C50F1000041EB045170BD45
:100910000EF0004E4EEA113114EB5C04C2BFD4EB72
:100920000C0541EA045170BD41F480114FF0000EF6
:10093000013C90E645EA060E8DE60CEA135594EA72
:100940000C0F08BF95EA0C0F3FF43BAF94EA0C0F75
:100950000AD150EA01347FF434AF95EA0C0F7FF4EA
:1009600025AF104619462CE795EA0C0F06D152EA3E
:1009700003353FF4FDAE1046194622E750EA410622
:1009800018BF52EA43067FF4C5AE50EA41047FF433
:100990000DAF52EA43057FF4EBAE12E74FEA410296
:1009A000B2F1E04324BFB3F5001CDCF1FE5C0DD9CD
:1009B00001F0004C4FEAC0024CEA5070B2F1004F17
:1009C00040EB830008BF20F00100704711F0804F1A
:1009D00021D113F13872BCBF01F00040704741F4DF
:1009E00080114FEA5252C2F11802C2F1200C10FAE3
:1009F0000CF320FA02F018BF40F001004FEAC123C7
:100A00004FEAD32303FA0CFC40EA0C0023FA02F36A
:100A10004FEA4303CCE77FEA625307D150EA013340
:100A20001EBF4FF0FE4040F44000704701F0004010
:100A300040F0FE4040F40000704700BF53B94AB98F
:100A4000002908BF00281CBF4FF0FF314FF0FF30D6
:100A500000F074B9ADF1080C6DE904CE00F006F8B1
:100A6000DDF804E0DDE9022304B070472DE9F0472A
:100A7000089D04468E46002B4DD18A42944669D982
:100A8000B2FA82F252B101FA02F3C2F1200120FA65
:100A900001F10CFA02FC41EA030E94404FEA1C48B3
:100AA000210CBEFBF8F61FFA8CF708FB16E341EAAF
:100AB000034306FB07F199420AD91CEB030306F135
:100AC000FF3080F01F81994240F21C81023E634456
:100AD0005B1AA4B2B3FBF8F008FB103344EA0344FA
:100AE00000FB07F7A7420AD91CEB040400F1FF330F
:100AF00080F00A81A74240F207816444023840EA4C
:100B00000640E41B00261DB1D4400023C5E9004384
:100B10003146BDE8F0878B4209D9002D00F0EF8007
:100B20000026C5E9000130463146BDE8F087B3FA3A
:100B300083F6002E4AD18B4202D3824200F2F98022
:100B4000841A61EB030301209E46002DE0D0C5E925
:100B5000004EDDE702B9FFDEB2FA82F2002A40F071
:100B60009280A1EB0C014FEA1C471FFA8CFE012674
:100B7000200CB1FBF7F307FB131140EA01410EFB18
:100B800003F0884208D91CEB010103F1FF3802D2BF
:100B9000884200F2CB804346091AA4B2B1FBF7F0B9
:100BA00007FB101144EA01440EFB00FEA64508D9DC
:100BB0001CEB040400F1FF3102D2A64500F2BB8019
:100BC0000846A4EB0E0440EA03409CE7C6F1200768
:100BD000B34022FA07FC4CEA030C20FA07F401FAAE
:100BE00006F31C43F9404FEA1C4900FA06F3B1FB37
:100BF000F9F8200C1FFA8CFE09FB181140EA01419C
:100C000008FB0EF0884202FA06F20BD91CEB010138
:100C100008F1FF3A80F08880884240F28580A8F190
:100C200002086144091AA4B2B1FBF9F009FB1011E2
:100C300044EA014100FB0EFE8E4508D91CEB010180
:100C400000F1FF346CD28E456AD90238614440EA23
:100C50000840A0FB0294A1EB0E01A142C846A646A3
:100C600056D353D05DB1B3EB080261EB0E0101FA2C
:100C700007F722FA06F3F1401F43C5E90071002689
:100C80003146BDE8F087C2F12003D8400CFA02FCDF
:100C900021FA03F3914001434FEA1C471FFA8CFEEF
:100CA000B3FBF7F007FB10360B0C43EA064300FBDF
:100CB0000EF69E4204FA02F408D91CEB030300F17D
:100CC000FF382FD29E422DD9023863449B1B89B234
:100CD000B3FBF7F607FB163341EA034106FB0EF3BD
:100CE0008B4208D91CEB010106F1FF3816D28B426A
:100CF00014D9023E6144C91A46EA004638E72E4636
:100D0000284605E70646E3E61846F8E64B45A9D22D
:100D1000B9EB020864EB0C0E0138A3E74646EAE79C
:100D2000204694E74046D1E7D0467BE7023B61444A
:100D300032E7304609E76444023842E7704700BFB3
:100D400001F0FF01102A2BDB10F0070F08D010F87C
:100D5000013B013A8B422DD010F0070F42B3F6D180
:100D6000F0B441EA012141EA014122F007047FF099
:100D700000070023F0E80256083C85EA010586EAF0
:100D8000010685FA47F5A3FA87F586FA47F6A5FA2C
:100D900087F68EB9EED1F0BC01F0FF0102F0070238
:100DA00032B110F8013B013A83EA010313B1F8D1E3
:100DB0000020704701387047002D06BF35460338C4
:100DC000073815F0010F07D1013015F4807F02BFFD
:100DD000013015F4C03F0130F0BC0138704700BF4E
:100DE000844641EA000313F003036DD1403A41D336
:100DF00051F8043B40F8043B51F8043B40F8043BF5
:100E000051F8043B40F8043B51F8043B40F8043BE4
:100E100051F8043B40F8043B51F8043B40F8043BD4
:100E200051F8043B40F8043B51F8043B40F8043BC4
:100E300051F8043B40F8043B51F8043B40F8043BB4
:100E400051F8043B40F8043B51F8043B40F8043BA4
:100E500051F8043B40F8043B51F8043B40F8043B94
:100E600051F8043B40F8043B51F8043B40F8043B84
:100E7000403ABDD2303211D351F8043B40F8043B24
:100E800051F8043B40F8043B51F8043B40F8043B64
:100E900051F8043B40F8043B103AEDD20C3205D334
:100EA00051F8043B40F8043B043AF9D2043208D02C
:100EB000D2071CBF11F8013B00F8013B01D30B889E
:100EC00003806046704700BF082A13D38B078DD07C
:100ED00010F003038AD0C3F10403D21ADB071CBF4E
:100EE00011F8013B00F8013B80D331F8023B20F8B8
:100EF000023B7BE7043AD9D3013A11F8013B00F8F1
:100F0000013BF9D20B7803704B7843708B78837078
:100F10006046704700000000000000000000000074
:100F200000000000000000000000000000000000C1
:100F300000000000000000000000000000000000B1
:100F400090F800F06DE9024520F007016FF0000C09
:100F500010F0070491F820F040F049804FF00004B1
:100F60006FF00700D1E9002391F840F000F108008C
:100F700082FA4CF2A4FA8CF283FA4CF3A2FA8CF3C4
:100F80004BBBD1E9022382FA4CF200F10800A4FA2B
:100F90008CF283FA4CF3A2FA8CF3E3B9D1E904237F
:100FA00082FA4CF200F10800A4FA8CF283FA4CF3B6
:100FB000A2FA8CF37BB9D1E9062301F1200182FA70
:100FC0004CF200F10800A4FA8CF283FA4CF3A2FA76
:100FD0008CF3002BC6D0002A04BF04301A4612BA84
:100FE000B2FA82F2FDE8024500EBD2007047D1E987
:100FF000002304F00305C4F100004FEAC50514F016
:10100000040F91F840F00CFA05F562EA05021CBFE6
:1010100063EA050362464FF00004A9E74FF0FF3C86
:1010200006E000BF4FF0010C02E000BF4FF0010CE2
:101030004DF804CD4FEA410C7FEA6C5C4FEA430C5B
:1010400018BF7FEA6C5C1BD001B050EA410C0CBFAA
:1010500052EA430C91EA030F02BF90EA020F00200C
:10106000704710F1000F91EA030F58BF994208BF73
:1010700090422CBFD8176FEAE37040F00100704730
:101080004FEA410C7FEA6C5C02D150EA013C07D187
:101090004FEA430C7FEA6C5CD6D152EA033CD3D0D2
:1010A0005DF8040B704700BF8446104662468C46CC
:1010B0001946634600E000BF01B5FFF7B7FF0028FF
:1010C00048BF10F1000F01BD4DF808EDFFF7F4FF28
:1010D0000CBF012000205DF808FB00BF4DF808EDB3
:1010E000FFF7EAFF34BF012000205DF808FB00BFD6
:1010F0004DF808EDFFF7E0FF94BF012000205DF8F8
:1011000008FB00BF4DF808EDFFF7CEFF94BF0120AC
:1011100000205DF808FB00BF4DF808EDFFF7C4FFA5
:1011200034BF012000205DF808FB00BF4FEA410CEE
:101130007FEA6C5C02D150EA013C0AD14FEA430CD1
:101140007FEA6C5C02D152EA033C02D14FF000000E
:1011500070474FF0010070474FEA410212F500124C
:1011600015D211D56FF47873B3EB625212D94FEAEE
:10117000C12343F0004343EA505311F0004F23FAD8
:1011800002F018BF404270474FF00000704750EA2D
:10119000013005D111F0004008BF6FF000407047EA
:1011A0004FF00000704700BF00B585B000230093EA
:1011B0000193029303931648164A02604FF480325B
:1011C000426083600361037680F820304FF08052E4
:1011D000C2624FF060628262C3600123C36180F823
:1011E0003030436101F05AF960B90C2300930123B8
:1011F000019302936946064801F096FA28B905B0B2
:101200005DF804FB00F0F4FAEFE700F0F1FAF6E71E
:10121000D40900200021014000B585B000230093CF
:101220000193029303931648164A02604FF48032EA
:10123000426083600361037680F820304FF0805273
:10124000C2624FF060628262C3600123C36180F8B2
:101250003030436101F022F960B90D23009301237E
:10126000019302936946064801F05EFA28B905B079
:101270005DF804FB00F0BCFAEFE700F0B9FAF6E71E
:101280001C0A00200022014030B58BB00446002328
:10129000059306930793089309930368414A934281
:1012A00004D0414A93423FD00BB030BD0025019598
:1012B0003E4B5A6C42F400725A645A6C02F400724B
:1012C0000192019A02951A6B42F004021A631B6B99
:1012D00003F004030293029B042305930323069364
:1012E00005A9334801F062FD3248334B03604FF0EB
:1012F000007343608560C5604FF4806303614FF401
:10130000006343614FF4005383614FF48073C36102
:101310000562456201F0C0FB18B9264BA3639C63CC
:10132000C2E700F065FAF8E7002503951F4B5A6CF9
:1013300042F480625A645A6C02F480620392039A07
:1013400004951A6B42F004021A631B6B03F004034A
:101350000493049B082305930323069305A91448CB
:1013600001F024FD1548164B03604FF08063436085
:101370008560C5604FF4806303614FF4006343618F
:101380004FF4005383614FF48073C361056245627B
:1013900001F082FB18B9094BA3639C6384E700F05A
:1013A00027FAF8E7002101400022014000380240FE
:1013B00000080240640A002040640240C40A002081
:1013C0001064024010B582B0002401940D4B1A6BDA
:1013D00042F480021A631B6B03F480030193019BA8
:1013E00022462146382001F07DFA382001F0B2FA79
:1013F000224621463A2001F075FA3A2001F0AAFA75
:1014000002B010BD003802402DE9F0438DB0002439
:101410000794089409940A940B940194424B1A6B14
:1014200042F010021A631A6B02F010020192019A44
:1014300002941A6B42F004021A631A6B02F004025F
:101440000292029A03941A6B42F020021A631A6BFA
:1014500002F020020392039A04941A6B42F0800275
:101460001A631A6B02F080020492049A05941A6BB4
:1014700042F001021A631A6B02F001020592059A0A
:1014800006941A6B42F002021A631B6B03F002030C
:101490000693069BDFF8989001224FF400714846AE
:1014A00001F076FDDFF88C8022464021404601F0B5
:1014B0006FFD082307934FF48817089701250995B6
:1014C0001A4E07A9304601F071FC4FF400730793E0
:1014D000089509940A9407A9484601F067FC40233F
:1014E0000793089509940A9407A9404601F05EFC09
:1014F0004FF4807307930897099407A9304601F0C9
:1015000055FC22462946092001F0ECF9092001F09A
:1015100021FA22462146172001F0E4F9172001F0B4
:1015200019FA0DB0BDE8F083003802400010024007
:101530000014024000000240824B834200D07047FA
:1015400070B52DED068B82B07F4A138801339BB2B4
:101550001380C72B02D9134600221A807A4C2388A5
:101560007A4901EB830292ED008AF2EE048A28EEBA
:10157000288A774A82ED008A03F18500754A82FB4A
:1015800000529211C82505FB120201EB8202D2ED36
:10159000007A67EEA87A704AC2ED007A6F4D85ED49
:1015A000008ADFED6F8A68EE288A9FED6E7A67EE1B
:1015B000877A78EEA78A6C4EC6ED008A07EE903ADD
:1015C000B8EE670A9FED69AA20EE0A0ADFED689A75
:1015D00080EE290A02F0ECFFB0EE409A238807EE75
:1015E000903AF8EE677A67EE8A7A87EEA90A03F0F6
:1015F00025F868EE007A29EE287A77EE877A5D4B37
:10160000C3ED007A28EE498A20EE280A38EE008AD7
:10161000594B83ED008A594C2046DFED591A9FED56
:10162000591AD6ED000A95ED000A00F0D5FA564B8E
:1016300018702288554B5A6362889A63A288DA63CD
:10164000534A13780133DBB21370272B71D900236F
:101650001370504A1268526A92B24F490A804F4939
:101660000888101A81B2ADF8000001F59C500830CE
:10167000ADF80200A1F59C510839ADF8041001E065
:101680000133DBB2022B0ED802A901EB430131F981
:10169000080C00F6C31189B241F28634A142EFD89A
:1016A0003F490880ECE73D4B1A803D4BB3F90030D1
:1016B00007EE903AF8EEE77A9FED3A7A67EE877A8E
:1016C000F2EE046A87EEA67A374B83ED007AF1EEEC
:1016D000007A27EE277A354B83ED007A3449A1FB57
:1016E00002310B0B41F2883000FB13239BB207EE53
:1016F000103AB8EEC77ADFED1D6A27EE267A9FED25
:101700002D6AC7EE067A2C4BC3ED007A890A40F2A7
:10171000E24303FB112292B207EE902AF8EEE77A39
:1017200067EEA67ADFED256A87EEA67A244B83ED75
:10173000007A4021234801F031FC02B0BDEC068B59
:1017400070BD00BF1C0A00207E0E00205C0B002034
:101750002C0B00201F85EB51340B0020300B002098
:101760003ACD133F3ACD933F380B0020DB0FC940F1
:10177000000048433C0B0020400B0020240B0020BD
:101780000000A04300007A46590B002000040140ED
:101790007C0E0020900E00204C0B00204A0B0020F5
:1017A000480B0020DB0F4940540B0020500B002059
:1017B0005917B7D100409C45840E002000409C443E
:1017C000800E002000000240082803D0B0F5807F82
:1017D00005D07047044A1378DB431370F6E7034BD8
:1017E0001B6800225A62F4E7580B0020900E00207C
:1017F00072B6FEE700B595B03022002108A802F0CD
:1018000091FF002303930493059306930793019399
:10181000214A116C41F080511164126C02F0805227
:101820000192019A02931D4B1A6842F480421A6099
:101830001B6803F480430293029B012308934FF437
:101840008033099302220E924FF480030F930423F6
:101850001093A02111911292139308A801F0B6FBE6
:10186000A8B90F23039302230493002305934FF495
:10187000A05306934FF480530793052103A801F06A
:1018800011FE30B901F09EFD15B05DF804FBFFF7C5
:10189000AFFFFFF7ADFF00BF00380240007000400F
:1018A00030B52DED028B83B000F032FDFFF7A2FFC3
:1018B000FFF7AAFD00F088FCFFF784FD00F004FBB1
:1018C00000F0DCFBFFF770FCFFF7A6FC564800F0C9
:1018D000CBF8002416E007EE904AB8EEE70A30EEA7
:1018E000000ADFED527A20EE270ADFED517A80EE12
:1018F000270A02F05DFE4F4B03EB840383ED000AE1
:101900000134A4B2C72CE6D94B4B41F63D721A64A0
:1019100041F658325A6341F63F72DA62474801F0A5
:101920006DFF3C21464802F0CBFA0122454946486A
:1019300000F0E0FD01224549454800F0DBFD4BE0A9
:1019400000224FF40071434801F022FB3B4C0C2174
:10195000204602F0EDF90021204602F0E9F90421C9
:10196000204602F0E5F90821204602F0E1F90021C5
:10197000204602F01BFB0421204602F017FB082141
:10198000204602F013FB2F4B1B8807EE903AF8EE2F
:10199000677A9FED316A67EE867ADFED306A2B4B0E
:1019A0001B8807EE103AB8EE477A27EE067A87EEE4
:1019B000268AC7EEA67A17EE900AFEF785FD044642
:1019C0000D4618EE100AFEF77FFDCDE90001224614
:1019D0002B46234802F0F8FE224B1B78002BAFD198
:1019E00001224FF400711B4801F0D2FA134C0C2174
:1019F000204602F01FFA0021204602F01BFA0421C3
:101A0000204602F017FA0821204602F013FA0021BE
:101A1000204602F047FB0421204602F043FB082148
:101A2000204602F03FFBAEE7200F0020DB0F4940CD
:101A3000000048435C0B002000040140D80E002049
:101A4000900E0020440B0020D4090020460B0020FB
:101A50001C0A0020001402400AD7534000F07F45C2
:101A6000B8A90008580B002008B5054B1860054BB5
:101A70001868002302221946806802F0B9FE08BDEA
:101A8000880E00200C000020022801D80120704799
:101A900008B502F01DFE09230360002008BD000008
:101AA00010B5013801280AD814464FF0FF3392B21E
:101AB0000748006802F09DFC40B9204610BD02F0C6
:101AC00007FE092303604FF0FF30F7E70520F5E735
:101AD000880E0020022801D80020704708B502F0C7
:101AE000F7FD092303604FF0FF3008BD08B502F091
:101AF000EFFD092303604FF0FF3008BD08B548B97A
:101B00004FF0FF3301220848006802F0DEFC40B9C4
:101B1000012008BD02F0DCFD092303604FF0FF3017
:101B2000F7E70520F5E700BF880E002008B502287A
:101B300004D84FF400534B60002008BD02F0C8FDEC
:101B400009230360F8E7000082B0002100910B4BED
:101B50005A6C42F480425A645A6C02F480420092F9
:101B6000009A01911A6C42F080521A641B6C03F0C7
:101B700080530193019B02B0704700BF00380240C0
:101B800008B501F067FDFEE7FEE7FEE7FEE7FEE7CA
:101B900070477047704708B500F0D4FB08BD08B522
:101BA000082001F005FA08BD08B54FF4807001F077
:101BB000FFF908BD08B5024801F00AF808BD00BFEA
:101BC000C40A002008B5024801F002F808BD00BFB1
:101BD000640A0020000000002DE9F84F2DED068B6F
:101BE000B0EE409AF0EE609AF0EE418AB0EE618A73
:101BF000054610EE100AFEF767FC82468B4690A35E
:101C0000D3E90023FEF7B8FC8046894619EE900A16
:101C1000FEF75AFC06460F4602460B46404649462A
:101C2000FEF7F2FA0022884BFEF7A6FCFEF7B6FE9E
:101C30000AEE100A80A3D3E9002350465946FEF766
:101C40009BFC32463B46FEF7DFFA00227E4BFEF756
:101C500093FCFEF7A3FE07EE900AF5EEC09AF1EEB4
:101C600010FA79DD0124B5EEC0AAF1EE10FA01DD1B
:101C70000234E4B2F5EEC07AF1EE10FA01DD04347C
:101C8000E4B26FA3D3E9002330463946FEF774FC73
:101C90008046894618EE900AFEF716FC42464B46EF
:101CA000FEF76AFC06460F4618EE100AFEF70CFC1B
:101CB00002460B4630463946FEF788FDFEF76EFEBB
:101CC00009EE900AC8EE887A17EE900AFEF7FCFB40
:101CD00006460F46F7EE087A69EE277A17EE900A65
:101CE000FEF7F2FB82468B460022574B40464946A0
:101CF000FEF742FC8046894602460B46504659464E
:101D0000FEF784FA02460B4630463946FEF734FCAD
:101D1000FEF744FE08EE100AFFEE087A69EE277A15
:101D200017EE900AFEF7D0FB02460B4640464946A6
:101D3000FEF76CFA02460B4630463946FEF71CFCAD
:101D4000FEF72CFE07EE900A631E052B0AD8DFE88B
:101D500003F0090541464B50002484E7F0EE487A31
:101D6000B1EE698A37EE887AB4EEE87AF1EE10FACD
:101D700007DD67EEA86AC6EE877A68EE286A86EE07
:101D8000878A38EEE77A37EE487AF5EE006A27EE72
:101D9000267ABCEEC77A17EE103A9AB277EEA87A96
:101DA00037EEC87A27EE267ABCEEC77A17EE103ADD
:101DB00099B277EE887A67EEA67AFCEEE77A17EEAC
:101DC000903A9BB2601E05281DD8DFE800F019216B
:101DD00025292D31F1EE677AB0EE698AC2E708EE67
:101DE000100AF1EE697ABDE7B1EE488AF0EE697A41
:101DF000B8E7B1EE487AB1EE678AF0EE477AB1E71C
:101E000029806A80AB802046BDEC068BBDE8F88F48
:101E10002A806B80A980F6E72A806980AB80F2E790
:101E20002B806980AA80EEE72B806A80A980EAE790
:101E300029806B80AA80E6E76E5DFFE87AB6FBBF7B
:101E40006E5DFFE87AB6FB3F0000E03F012070477F
:101E500008B502F03DFC162303604FF0FF3008BDCB
:101E600008B54FF0FF31FFF7F3FFFEE710B503466B
:101E70000C4A0D490D48006840B10C480068034405
:101E8000521A934206D8094A136010BD0748084CFD
:101E90000460F2E702F01CFC0C2303604FF0FF30FB
:101EA000F3E700BF00000220000400008C0E0020B9
:101EB000B00F0020034AD2F8883043F47003C2F810
:101EC0008830704700ED00E000B58DB0242200217D
:101ED00003A802F027FC0023019302931148124A41
:101EE00002604360836041F28732C26003614361F4
:101EF0008361012303930593099303A901F07AFDFC
:101F000050B900230193029301A9064802F006F993
:101F100028B90DB05DF804FBFFF76AFCF1E7FFF7A5
:101F200067FCF6E7900E00200000014000B589B084
:101F30000023039304930593069307930268144BBD
:101F40009A4202D009B05DF804FB0021019103F52B
:101F50009C335A6C42F001025A645A6C02F001023E
:101F60000192019A02911A6B42F010021A631B6BE4
:101F700003F010030293029B4FF4206303930223A8
:101F800004930123079303A9024800F00FFFD9E748
:101F900000000140001002400268094B9A4200D044
:101FA000704782B000230193064B5A6C42F0020244
:101FB0005A645B6C03F002030193019B02B070470B
:101FC0000004014000380240F0B589B000230393BB
:101FD0000493059306930793026803F1804303F586
:101FE00082339A4201D009B0F0BD0024009403F579
:101FF0009A331A6B42F001021A631A6B02F0010263
:102000000092009A01941A6B42F002021A631A6B52
:1020100002F002020192019A02941A6B42F0040249
:102020001A631B6B03F004030293029B8023039348
:1020300002270497012605960325079503A90C4856
:1020400000F0B4FE0395049705960694079503A93E
:10205000084800F0ABFE4FF4E07303930497059635
:102060000694079503A9044800F0A0FEBBE700BF53
:1020700000000240000402400008024030B597B062
:1020800000241294139414941594109411940994A8
:102090000A940B940C940D940E940F9420252A46C8
:1020A000214601A802F03EFB4548464B03604460D0
:1020B00085604FF4FA53C3604FF4807303610123CA
:1020C0004361846101F03EFC00285ED14FF48053EF
:1020D000129312A93A4801F09CFD002858D13848C3
:1020E00001F05CFC002856D170231093002311935B
:1020F00010A9334802F012F800284FD16023099349
:1021000000220A9202230B9308230C930D924FF4A2
:1021100080730E934FF400730F9309A9284801F0C0
:10212000FDFC00283DD1042209A9254801F0F6FC58
:10213000002839D1082209A9214801F0EFFC002824
:1021400035D17023099341F63E730A9300230B9314
:102150000E930F930C2209A9194801F0DFFC48BB2C
:1021600000230193029303932822049205934FF4D2
:1021700000520692089301A9114802F015F8E0B93F
:102180000F48FFF721FF17B030BDFFF731FB9DE788
:10219000FFF72EFBA3E7FFF72BFBA5E7FFF728FBD5
:1021A000ACE7FFF725FBBEE7FFF722FBC2E7FFF72F
:1021B0001FFBC6E7FFF71CFBD2E7FFF719FBDFE7C2
:1021C000D80E00200004014008B50A480A4B0360FD
:1021D0004FF4E133436000238360C36003610C224A
:1021E00042618361C36102F0D5F800B908BDFFF711
:1021F000FFFAFBE7200F00200010014000B589B076
:10220000002303930493059306930793026803F155
:10221000804303F588339A4202D009B05DF804FB8D
:102220000021019103F594335A6C42F010025A6474
:102230005A6C02F010020192019A02911A6B42F05C
:1022400001021A631B6B03F001030293029B4FF41C
:10225000C063039302230493032306930723079386
:1022600003A9024800F0A2FDD7E700BF000002402A
:10227000DFF834D00D480E490E4A002302E0D4584E
:10228000C4500433C4188C42F9D30B4A0B4C0023BE
:1022900001E013600432A242FBD3FFF70BFE02F011
:1022A0001DFAFFF7FDFA7047000002200000002031
:1022B000B8090020F4B50008B8090020B00F0020CC
:1022C000FEE7000010B504460E4B18784FF47A7301
:1022D000B3FBF0F30C4A1068B0FBF3F000F048FBDE
:1022E00068B90F2C01D901200AE0002221464FF0E5
:1022F000FF3000F0F7FA054B1C60002000E00120E1
:1023000010BD00BF040000200000002008000020D5
:1023100008B50B4B1A6842F400721A601A6842F44E
:1023200080621A601A6842F480721A60032000F01A
:10233000C7FA0F20FFF7C6FFFFF706FC002008BD15
:10234000003C0240034A1168034B1B780B441360A6
:10235000704700BF640F002004000020014B186884
:10236000704700BF640F00204A4B5A6822F4403285
:102370005A605A6841680A435A600268536823F4F5
:102380008073536002685368016943EA0123536014
:102390000268536823F04073536002685368816891
:1023A0000B4353600268936823F4006393600268F0
:1023B0009368C1680B439360826A374B9A4257D047
:1023C0000268936823F07063936002689368816A7F
:1023D0000B4393600268936823F040539360026854
:1023E0009368C16A0B4393600268936823F0020309
:1023F000936002689368017E43EA4103936090F81A
:102400002030002B3FD00268536843F400635360D0
:102410000268536823F46043536001684B68426A62
:10242000013A43EA42334B600268D36A23F47003F3
:10243000D3620168CB6AC269013A43EA0253CB62B4
:102440000268936823F4007393600268936890F8BD
:10245000301043EA412393600268936823F4806359
:10246000936002689368416943EA812393607047EF
:102470000268936823F0706393600268936823F0A6
:1024800040539360B0E70268536823F400635360DD
:10249000CAE700BF002301400100000F38B310B5A8
:1024A0000446036C43B1236C13F0100F0BD00120D2
:1024B000002384F83C3010BDFEF7E6FE0023636481
:1024C00084F83C30EFE7236C23F4885323F00203B5
:1024D00043F0020323642046FFF746FF00206064B8
:1024E000236C23F0030343F001032364E0E701209E
:1024F0007047000010B582B013460022019290F898
:102500003C20012A00F0AE800446012280F83C20E5
:102510000268906810F0010F13D1906840F001003C
:102520009060534A1068534AA2FB0020800C00EBD5
:102530004000019002E001980138019001980028C4
:10254000F9D12268906810F4807F03D0906820F45D
:10255000807090602268906810F0010F77D0206C36
:1025600020F4E06020F0010040F4807020645268A4
:1025700012F4806F05D0226C22F4405242F4805253
:102580002264226C12F4805F36D0626C22F0060264
:102590006264002284F83C20A26B3748D063A26BAF
:1025A00036481064A26B3648D06422686FF022006F
:1025B00010602068426842F0806242602068826851
:1025C00042F48072826020680A4600F14C01A06BE0
:1025D00000F0C8FA2B4B5B6813F01F0F27D123685C
:1025E000294A934211D002F58072934207D0274ABC
:1025F000934214D0002033E000226264C9E702F560
:102600000072526812F01F0FF1D19A6812F0405F09
:102610002AD19A6842F080429A60002020E002F5B8
:102620008072526812F0100FEFD0002018E023687B
:10263000154A934201D0002012E09A6812F0405FE0
:1026400014D19A6842F080429A60002008E0236C1E
:1026500043F010032364636C43F0010363640020C0
:1026600002B010BD0220FBE70020F9E70020F7E7E9
:102670000000002083DE1B43B526000893260008D7
:102680009F26000800230140002001400022014055
:10269000704708B5806BFFF7FBFF08BD704708B5B2
:1026A000806B40230364436C43F004034364FFF7EF
:1026B000F5FF08BD08B50346806B026C12F0500FA1
:1026C00025D1036C43F40073036403689A6812F025
:1026D000405F19D1027EBAB9DA6A12F4700F03D0E2
:1026E0009A6812F4806F0FD15A6822F020025A6063
:1026F000036C23F480730364036C13F4805F03D1D1
:10270000036C43F001030364FEF716FF08BD026C7F
:1027100012F0100F04D1826BD26C18469047F5E787
:10272000FFF7BCFFF2E7000030B482B00023019352
:1027300090F83C30012B00F0BB80012380F83C3046
:102740000B68092B41D90468E2689BB203EB430391
:102750001E3B4FF0070C0CFA03F322EA0303E3607D
:102760000468E2680B8803EB43031E3B8D6805FA9F
:1027700003F31343E3604B68062B3DD80468626B98
:1027800003EB8303053B4FF01F0C0CFA03F322EA23
:10279000030363630468626B4B6803EB8303053BCD
:1027A000B1F800C00CFA03F3134363630268414BB2
:1027B0009A4251D002683F4B9A4256D0002380F88B
:1027C0003C30184602B030BC7047046822699BB2A6
:1027D00003EB43034FF0070C0CFA03F322EA030365
:1027E0002361046822690B8803EB43038D6805FAB3
:1027F00003F313432361BEE70C2B16D805682A6B3D
:1028000003EB8303233B1F2404FA03F322EA0303AD
:102810002B6305682A6B4B6803EB8303233B0C880F
:1028200004FA03F313432B63C0E70568EA6A03EB7A
:102830008303413B1F2404FA03F322EA0303EB6200
:102840000568EA6A4B6803EB8303413B0C8804FA92
:1028500003F31343EB62A9E70B68122BAAD1164AC4
:10286000536843F480035360A4E70B68103B012BCB
:10287000A4D8114A536843F4000353600B68102B2B
:102880009CD10E4B1B6802F1467202F52E3202F209
:102890008332A2FB03239B0C03EB83035B000193B6
:1028A00002E0019B013B0193019B002BF9D185E7DD
:1028B000022087E7002001400023014000000020A3
:1028C000074AD36823F4E0631B041B0C000200F4E6
:1028D000E060034343F0BF6343F40033D3607047C9
:1028E00000ED00E000B5194BDB68C3F30223C3F130
:1028F000070CBCF1040F28BF4FF0040C03F1040EC9
:10290000BEF1060F18D9033B4FF0FF3E0EFA0CFC48
:1029100021EA0C0199400EFA03F322EA030319435A
:1029200000280BDB0901C9B200F1604000F56140ED
:1029300080F800135DF804FB0023E5E700F00F00CA
:102940000901C9B2024B1954F4E700BF00ED00E0E1
:1029500014ED00E0002807DB00F01F02400901230E
:102960009340024A42F82030704700BF00E100E087
:102970000138B0F1807F0BD24FF0E0235861054A57
:10298000F02182F823100020986107221A61704715
:102990000120704700ED00E030B405682C6824F495
:1029A00080242C60046863608368402B05D0036832
:1029B00099600368DA6030BC704703689A60036806
:1029C000D960F8E710B40368D9B210390C4AA2FBF9
:1029D000014212090B4CA25CC2655F2909D923F49C
:1029E0007F7323F0030304338365806D5DF8044B2C
:1029F000704723F47F7323F003038365F5E700BF7B
:102A0000ABAAAAAAD8A90008836A826992B9012B45
:102A10000AD0022B02D00BB100207047C36A13F01A
:102A2000807F28D100207047C36AB3F1C07F24D0D3
:102A300000207047B2F5005F09D0022B25D9032B87
:102A400025D1C36A13F0807F23D100207047032B68
:102A500003D8DFE803F01404140A00207047C36AA7
:102A600013F0807F0DD100207047C36AB3F1C07F9F
:102A700009D00020704701207047012070470120D5
:102A800070470120704701207047012070470020E7
:102A9000704701207047000070B50446FFF75EFCE8
:102AA000002C5BD00546022384F83530002384F8DF
:102AB00034302268136823F00103136023681A6816
:102AC00012F0010F0AD0FFF749FC431B052BF5D983
:102AD00020236365032084F8350070BD1A68204800
:102AE00010406168A2680A43E1680A4321690A4309
:102AF00061690A43A1690A43E1690A43216A0A43F9
:102B00000243616A04291ED01A602668756925F09F
:102B10000705636A1D43042B07D1A36A1D43E36ABB
:102B20001BB12046FFF770FF90B975612046FFF793
:102B300049FFE26D3F2393408360002060650123DD
:102B400084F83530C9E7E16A206B01430A43DBE7CB
:102B500040236365012084F83500BEE70120BCE70F
:102B60003F8010F038B50446856D90F83400012898
:102B70002BD0012084F8340094F83500C0B201282D
:102B800004D0002384F83430022038BD022084F8B9
:102B90003500002060652046FFF7FEFEE26D3F2312
:102BA0009340AB602268136843F016031360236CF4
:102BB00023B12268136843F0080313602268136886
:102BC00043F0010313600020DFE70220DDE700008F
:102BD000F0B583B0044600230193724B1D68724B1D
:102BE000A3FB0535AD0A876D3E68C26D082393408F
:102BF000334210D003681A6812F0040F0BD01A6821
:102C000022F004021A60C26D08239340BB60436D3A
:102C100043F001034365E26D01239340334209D041
:102C20002268526912F0800F04D0BB60636D43F0DC
:102C300002036365E26D04239340334209D02268A6
:102C4000126812F0020F04D0BB60636D43F00403FE
:102C50006365E26D10239340334224D022681268EA
:102C600012F0080F1FD0BB6023681A6812F4802F7F
:102C70000DD01B6813F4002F04D1236C9BB12046A8
:102C8000984710E0A36C73B1204698470BE01A6890
:102C900012F4807F03D11A6822F008021A60236CB4
:102CA0000BB120469847E26D20239340334255D024
:102CB0002268126812F0100F50D0BB6094F83530C3
:102CC000DBB2052B0ED023681A6812F4802F33D0A4
:102CD0001B6813F4002F2AD1636C002B3ED02046D2
:102CE00098473BE02268136823F0160313602268BC
:102CF000536923F080035361236CA3B122681368E6
:102D000023F008031360E26D3F239340BB6001236F
:102D100084F83530002384F83430236D002B3FD005
:102D2000204698473CE0A36C002BE7D1EBE7E36B30
:102D3000A3B12046984711E01A6812F4807F09D1A8
:102D40001A6822F010021A60012384F8353000233B
:102D500084F83430E36B0BB120469847636DFBB1C8
:102D6000636D13F0010F17D0052384F83530226806
:102D7000136823F001031360019B01330193AB42FD
:102D800004D823681B6813F0010FF5D1012384F8E0
:102D90003530002384F83430E36C0BB1204698477B
:102DA00003B0F0BD00000020B5814E1B00230F2BA7
:102DB00000F2E48070B582B060E085685E000324B4
:102DC000B44025EA0405CC68B4402C4384604568CF
:102DD00025EA02054C68C4F300129A402A43426077
:102DE0005AE0DC08083450F8246003F0070295002C
:102DF0000F22AA4026EA020E0A69AA4042EA0E02FF
:102E000040F824205CE0072200E0002202FA0EF2E3
:102E10002A4302345A4D45F824205A4A94686FEAEE
:102E20000C0224EA0C054E6816F4801F01D04CEA0F
:102E30000405544CA560E46802EA04054E6816F4E3
:102E4000001F01D04CEA04054E4CE560646802EABC
:102E500004054E6816F4003F01D04CEA0405494CC5
:102E60006560246822404D6815F4803F01D04CEA2B
:102E70000402444C226001330F2B7DD801229A407A
:102E80000C6804EA020C32EA0404F4D14C6804F041
:102E90000304013C012C90D94A6802F00302032A82
:102EA00009D0C4685D000322AA4024EA02048A68AB
:102EB000AA402243C2604A6802F00302022A90D06C
:102EC00004684FEA430E032202FA0EF224EA0204D7
:102ED0004A6802F0030202FA0EF2224302604A68D4
:102EE00012F4403FC7D000220192274A546C44F4A8
:102EF00080445464526C02F480420192019A9C080E
:102F0000A51C1F4A52F8255003F003024FEA820E17
:102F10000F2202FA0EF225EA02051C4A90423FF403
:102F200074AF02F5806290421AD002F5806290423E
:102F300018D002F58062904216D002F5806290426D
:102F400014D002F58062904212D002F58062904265
:102F500010D002F5806290423FF455AF082255E749
:102F6000012253E7022251E703224FE704224DE7F3
:102F700005224BE7062249E702B070BD704700BF4B
:102F800000380140003C014000380240000002408F
:102F90000AB181617047090481617047436901EAA0
:102FA000030221EA030141EA024181617047000006
:102FB00008B5054B5B69034200D108BD024B58615F
:102FC000FEF702FCF9E700BF003C0140002800F0DA
:102FD000E08170B582B00446036813F0010F3BD066
:102FE0009F4B9B6803F00C03042B2CD09C4B9B68DD
:102FF00003F00C03082B21D06368B3F5803F4FD05A
:10300000B3F5A02F52D0964B1A6822F480321A6082
:103010001A6822F480221A606368002B50D0FFF7F0
:103020009DF905468E4B1B6813F4003F14D1FFF742
:1030300095F9401B6428F5D90320B1E1884B5B6802
:1030400013F4800FD8D0864B1B6813F4003F03D0D5
:103050006368002B00F09F81236813F0020F54D0A7
:103060007F4B9B6813F00C0F3ED07D4B9B6803F0A9
:103070000C03082B33D0E368002B68D0794B012276
:103080001A60FFF76BF90546754B1B6813F0020FCA
:1030900054D1FFF763F9401B0228F5D903207FE1E3
:1030A0006F4A136843F480331360B5E76C4B1A68BA
:1030B00042F480221A601A6842F480321A60ABE748
:1030C000FFF74CF90546664B1B6813F4003FC3D06D
:1030D000FFF744F9401B6428F5D9032060E1604BF9
:1030E0005B6813F4800FC6D15D4B1B6813F0020FB1
:1030F00003D0E368012B40F05081594A136823F054
:10310000F803216943EAC1031360236813F0080F31
:1031100042D063696BB3534B0122C3F8802EFFF793
:103120001DF905464E4B5B6F13F0020F34D1FFF7CC
:1031300015F9401B0228F5D9032031E1484A1368EC
:1031400023F0F803216943EAC1031360DDE7454B2F
:1031500000221A60FFF702F90546414B1B6813F085
:10316000020FD2D0FFF7FAF8401B0228F5D903204E
:1031700016E13C4B0022C3F8802EFFF7EFF805461E
:10318000374B5B6F13F0020F06D0FFF7E7F8401BD9
:103190000228F5D9032003E1236813F0040F77D048
:1031A0002F4B1B6C13F0805F33D1002301932C4B0A
:1031B0001A6C42F080521A641B6C03F08053019326
:1031C000019B0125284B1B6813F4807F23D0A36843
:1031D000012B34D0052B38D0214B1A6F22F001027D
:1031E0001A671A6F22F004021A67A368002B3DD0F9
:1031F000FFF7B4F806461A4B1B6F13F0020F46D1C7
:10320000FFF7ACF8801B41F288339842F3D90320D2
:10321000C6E00025D6E7144A136843F480731360B0
:10322000FFF79CF80646104B1B6813F4807FCED145
:10323000FFF794F8801B0228F5D90320B0E0084A74
:10324000136F43F001031367CFE7054B1A6F42F08A
:1032500004021A671A6F42F001021A67C5E700BF3D
:10326000003802400000474200700040FFF776F847
:103270000646524B1B6F13F0020F08D0FFF76EF893
:10328000801B41F288339842F3D9032088E0EDB9DE
:10329000A369002B00F08380484A926802F00C0278
:1032A000082A51D0022B17D0454B00221A66FFF78F
:1032B00055F80446414B1B6813F0007F42D0FFF7DE
:1032C0004DF8001B0228F5D9032069E03B4A136C36
:1032D00023F080531364DBE7394B00221A66FFF7B3
:1032E0003DF80546354B1B6813F0007F06D0FFF70D
:1032F00035F8401B0228F5D9032051E0E369226A22
:103300001343626A43EA8213A26A5208013A43EA0B
:103310000243E26A43EA0263284A5360284B0122CF
:103320001A66FFF71BF80446244B1B6813F0007F56
:1033300006D1FFF713F8001B0228F5D903202FE070
:1033400000202DE000202BE0012B2BD01B4B5B68D5
:1033500003F48001E269914226D103F03F02216A21
:103360008A4223D1616A47F6C0721A40B2EB811FCC
:103370001ED103F44031A26A5208013AB1EB024F68
:1033800018D103F07063E26AB3EB026F14D100202E
:1033900006E001207047012002E0012000E000204B
:1033A00002B070BD0120FBE70120F9E70120F7E73B
:1033B0000120F5E70120F3E70120F1E700380240A2
:1033C00000004742014B0122DA6470470000474287
:1033D00008B5314B9B6803F00C03042B57D0082B26
:1033E00057D12D4B5A6802F03F025B6813F4800FEF
:1033F0002AD0294B5968C1F3881C4FEA4C11B1EB14
:103400000C006EEB0E0E4FEA8E1343EA90638101BF
:10341000091A63EB0E03DB0043EA5173C90011EB99
:103420000C0C43F10003590200234FEA4C2041EAFF
:10343000DC51FDF703FB184B5B68C3F30143013319
:103440005B00B0FBF3F025E0134B5968C1F3881C17
:103450004FEA4C11B1EB0C006EEB0E0E4FEA8E13DF
:1034600043EA90638101091A63EB0E03DB0043EA30
:103470005173C90011EB0C0C43F1000399020023B6
:103480004FEA8C2041EA9C51FDF7D8FAD3E7034874
:1034900000E0034808BD00BF0038024000127A0077
:1034A0000024F400002800F09B8070B50D4604460F
:1034B0004F4B1B6803F007038B4208D2CBB24C4A38
:1034C0001370136803F007038B4240F08B8023686E
:1034D00013F0020F17D013F0040F04D0454A93687D
:1034E00043F4E0539360236813F0080F04D0414A7B
:1034F000936843F4604393603E4A936823F0F0037B
:10350000A1680B439360236813F0010F32D0636806
:10351000012B21D09A1E012A25D9364A126812F0B1
:10352000020F61D033498A6822F0030213438B6093
:10353000FEF714FF06462F4B9B6803F00C036268EE
:10354000B3EB820F16D0FEF709FF801B41F28833E0
:103550009842F0D9032042E0264A126812F4003F54
:10356000E0D101203BE0234A126812F0007FD9D15C
:10357000012034E01E4B1B6803F00703AB4207D960
:10358000EAB21B4B1A701B6803F00703AB422DD144
:10359000236813F0040F06D0164A936823F4E0530F
:1035A000E1680B439360236813F0080F07D0114ABA
:1035B000936823F46043216943EAC1039360FFF7F2
:1035C00007FF0C4B9B68C3F303130B4AD35CD84033
:1035D0000A4B18600A4B1868FEF774FE002070BD95
:1035E000012070470120FAE70120F8E70120F6E703
:1035F000003C024000380240C0A900080000002042
:1036000008000020014B1868704700BF0000002030
:1036100008B5FFF7F7FF044B9B68C3F38223034A07
:10362000D35CD84008BD00BF00380240D0A90008D4
:1036300008B5FFF7E7FF044B9B68C3F34233034A27
:10364000D35CD84008BD00BF00380240D0A90008B4
:103650007047000008B5064BDB6813F0800F00D1FF
:1036600008BDFFF7F5FF024B80229A73F8E700BF11
:103670000038024030B4036A23F001030362036A96
:103680004268846924F073040D682C4323F0020C13
:103690008B6843EA0C03104DA84203D005F5806502
:1036A000A84205D123F00803CD682B4323F004037F
:1036B000094DA84203D005F58065A84205D122F442
:1036C00040724D692A438D692A43426084614A6889
:1036D0004263036230BC70470000014030B4036AAB
:1036E00023F480730362036A4268C46924F0730C94
:1036F0000C6844EA0C0523F400738C6843EA042345
:10370000114CA04203D004F58064A04206D123F4FA
:103710000063CC6843EA042323F480630A4CA0428C
:1037200003D004F58064A04207D122F440524C69D2
:1037300042EA04128C6942EA04124260C5614A6896
:10374000C263036230BC70470000014030B4036ABA
:1037500023F480530362036A4468C26922F4E64298
:103760000D6842EA052223F400538D6843EA0533CD
:10377000094DA84203D005F58065A84204D124F480
:1037800080444D6944EA85144460C2614A68026419
:10379000036230BC704700BF0000014010B4036AF0
:1037A000046A24F001040462846924F0F00C4CEAF9
:1037B000021223F00A030B43826103625DF8044B9B
:1037C000704710B4046A24F0100404628469036A28
:1037D00024F4704C4CEA023223F0A00343EA0113B4
:1037E000826103625DF8044B7047836823F07003C5
:1037F0000B4343F0070383607047000090F83D30AF
:10380000DBB2012B32D1022380F83D300368194A24
:10381000934220D0B3F1804F1DD0A2F57C42934259
:1038200019D002F58062934215D002F5806293426E
:1038300011D002F5784293420DD002F570529342B6
:1038400009D0A2F59432934205D01A6842F00102E1
:103850001A60002070479A6802F00702062A07D013
:103860001A6842F001021A60002070470120704778
:103870000020704700000140704700000368304A94
:10388000904212D0B0F1804F0FD0A2F57C4290420E
:103890000BD002F58062904207D002F58062904220
:1038A00003D002F57842904203D123F070034A68B6
:1038B0001343234A90422AD0B0F1804F27D0A2F57B
:1038C0007C42904223D002F5806290421FD002F5E4
:1038D000806290421BD002F57842904217D002F5E8
:1038E0007052904213D002F5806290420FD002F5E0
:1038F000806290420BD0A2F59832904207D002F538
:103900008062904203D002F58062904203D123F49A
:103910004073CA68134323F080034A69134303606A
:103920008B68C3620B688362054B984203D003F532
:103930008063984201D10B6903630123436170479F
:103940000000014040B310B5044690F83D30F3B19B
:10395000022384F83D30214651F8040BFFF78EFF17
:10396000012384F8463084F83E3084F83F3084F8F0
:10397000403084F8413084F8423084F8433084F891
:10398000443084F8453084F83D30002010BD80F884
:103990003C30FEF701FBDBE70120704740B310B578
:1039A000044690F83D30F3B1022384F83D302146BF
:1039B00051F8040BFFF762FF012384F8463084F8C6
:1039C0003E3084F83F3084F8403084F8413084F849
:1039D000423084F8433084F8443084F8453084F829
:1039E0003D30002010BD80F83C30FFF745FFDBE79D
:1039F00001207047002856D0F8B50D46044690F8CF
:103A00003D30002B4AD0022384F83D302268936871
:103A100023F4804323F007039360214651F8040BFD
:103A2000FFF72CFF21688A688B690E6A28681043AB
:103A300023F4407C2CF0030CAA68AB6942EA032310
:103A400043EA0C0323F47C4323F0FC03EA69EF68A8
:103A500047EA022C4CEA030C2A6A13032A6943EA58
:103A6000021343EA0C0326F0AA066A686D6942EA6B
:103A700005123243886021688B6123681A62012332
:103A800084F8463084F83E3084F83F3084F8423081
:103A900084F8433084F83D300020F8BD80F83C3095
:103AA000FEF744FAAFE701207047000030B4036A24
:103AB00023F010030362036A4468826922F4E64239
:103AC0000D6842EA052223F020038D6843EA0513BE
:103AD000114DA84203D005F58065A84206D123F018
:103AE0008003CD6843EA051323F040030A4DA84242
:103AF00003D005F58065A84207D124F440644D69E0
:103B000044EA85048D6944EA8504446082614A6818
:103B10008263036230BC70470000014038B590F802
:103B20003C30012B66D004460D46012380F83C3022
:103B30000C2A5AD8DFE802F0075959591B5959592C
:103B40003059595944000068FFF794FD2268936981
:103B500043F0080393612268936923F0040393619F
:103B60002268936929690B43936100203EE0006855
:103B7000FFF79CFF2268936943F400639361226816
:103B8000936923F48063936122689369296943EA06
:103B900001239361002029E00068FFF79FFD226860
:103BA000D36943F00803D3612268D36923F0040387
:103BB000D3612268D36929690B43D361002015E0E2
:103BC0000068FFF7C3FD2268D36943F40063D36143
:103BD0002268D36923F48063D3612268D369296999
:103BE00043EA0123D361002000E00120002384F890
:103BF0003C3038BD0220FCE710B4846824F47F4CCC
:103C000042EA03220A4342EA0C0282605DF8044B56
:103C1000704790F83C30012B78D010B50446012352
:103C200080F83C30022380F83D300268936823F42A
:103C30007F4323F0770393600B68602B4CD029D827
:103C4000402B54D00CD9502B22D1CA684968006847
:103C5000FFF7A4FD50212068FFF7C7FD002005E015
:103C6000202B0DD009D9302B0AD00120012384F854
:103C70003D30002384F83C3010BD0BB1102B05D132
:103C800019462068FFF7B1FD0020EFE70120EDE7BE
:103C90000120EBE7B3F5805F34D0B3F5005F0CD1C2
:103CA000CB684A6889680068FFF7A6FF22689368B6
:103CB00043F4804393600020D8E7702B24D1CB6875
:103CC0004A6889680068FFF797FF2268936843F0A5
:103CD000770393600020C9E7CA6849680068FFF766
:103CE00070FD60212068FFF780FD0020BEE7CA68F4
:103CF00049680068FFF752FD40212068FFF775FD15
:103D00000020B3E70020B1E70120AFE702207047B1
:103D100001F01F01012303FA01FC036A23EA0C03EB
:103D20000362036A02FA01F10B4303627047000069
:103D300010B504460846002942D194F83E30DBB263
:103D4000013B18BF0123002B6ED1002851D1022363
:103D500084F83E30012201462068FFF7D9FF23682E
:103D6000334A934203D002F58062934203D15A6CE6
:103D700042F400425A6423682D4A934249D0B3F179
:103D8000804F46D0A2F57C42934242D002F5806239
:103D900093423ED002F5806293423AD002F57842D7
:103DA000934236D002F57052934232D0A2F594324B
:103DB00093422ED01A6842F001021A60002032E0CD
:103DC000042908D008290DD094F84130DBB2013B1A
:103DD00018BF0123B7E794F83F30DBB2013B18BFAF
:103DE0000123B0E794F84030DBB2013B18BF012358
:103DF000A9E7042805D0082807D0022384F8413019
:103E0000A8E7022384F83F30A4E7022384F8403077
:103E1000A0E79A6802F00702062A07D01A6842F063
:103E200001021A60002010BD0120FCE70020FAE723
:103E30000000014038B504460D4600220068FFF737
:103E400067FF23681D4A934218D002F580629342AF
:103E500014D02368196A41F21112114208D1196A6B
:103E600040F24442114203D11A6822F001021A6062
:103E70009DB9012384F83E30002038BD196A41F213
:103E800011121142E5D1196A40F244421142E0D1C7
:103E90005A6C22F400425A64DBE7042D05D0082D49
:103EA00007D0012384F84130E6E7012384F83F304E
:103EB000E2E7012384F84030DEE700BF0000014064
:103EC00038B5044690F83E00C0B294F83F3094F8FC
:103ED0004220D2B294F843C00D46B1B9012849D16D
:103EE000012A48D1022384F83E3084F842307DB361
:103EF000042D39D0012200212068FFF709FF01229B
:103F000004212068FFF704FF27E0DBB25FFA8CFC96
:103F1000042912D0012833D1012B2CD1012A31D10F
:103F2000BCF1010F30D1022384F83E3084F83F30D9
:103F300084F8423084F84330D9E7012B1CD1BCF11E
:103F4000010F1BD1022384F83F3084F84330CEE7C1
:103F5000012200212068FFF7DBFE2268136843F08E
:103F600001031360002006E0012204212068FFF70E
:103F7000CFFEF2E7012038BD0120FCE71846FAE742
:103F80000120F8E71846F6E71046F4E701F01F01B4
:103F9000042303FA01FC036A23EA0C030362036AA5
:103FA00002FA01F10B4303627047000010B50446AA
:103FB000084600293BD194F84230DBB2013B18BFE0
:103FC0000123002B67D100284AD1022384F8423014
:103FD000042201462068FFF7D9FF2268536C43F49E
:103FE0000043536423682E4A934249D0B3F1804F73
:103FF00046D0A2F57C42934242D002F580629342C1
:104000003ED002F5806293423AD002F57842934264
:1040100036D002F57052934232D0A2F594329342D8
:104020002ED01A6842F001021A60002032E0042902
:1040300008D008290DD094F84530DBB2013B18BFF9
:104040000123BEE794F84330DBB2013B18BF0123E4
:10405000B7E794F84430DBB2013B18BF0123B0E767
:10406000042805D0082807D0022384F84530AFE79C
:10407000022384F84330ABE7022384F84430A7E7F7
:104080009A6802F00702062A07D01A6842F0010275
:104090001A60002010BD0120FCE70020FAE700BFF5
:1040A0000000014038B504460D4600220068FFF7C5
:1040B0006DFF2368196A41F21112114208D1196A81
:1040C00040F24442114203D15A6C22F400425A6435
:1040D0002368196A41F21112114208D1196A40F29B
:1040E0004442114203D11A6822F001021A6025B934
:1040F000012384F84230002038BD042D05D0082D5E
:1041000007D0012384F84530F5E7012384F84330D4
:10411000F1E7012384F84430EDE7000090F83C30EB
:10412000012B3DD010B4012380F83C30022380F8ED
:104130003D3003685A689C6822F0700C0A6842EAB5
:104140000C025A600368174A93421AD0B3F1804FA9
:1041500017D0A2F57C42934213D002F580629342BD
:104160000FD002F5806293420BD002F57842934261
:1041700007D002F57052934203D0A2F594329342D5
:1041800004D124F080044A6814439C60012380F821
:104190003D30002380F83C3018465DF8044B7047F2
:1041A000022070470000014090F83C30012B22D0E3
:1041B000012380F83C30CB6823F440738A681343B2
:1041C00023F480634A68134323F400630A681343AB
:1041D00023F480530A69134323F400534A691343B9
:1041E00023F48043CA69134302685364002380F8B0
:1041F0003C301846704702207047000038B504462E
:104200000268136923F44053C1680B431361836848
:104210000269134342691343C2691A430168CB68B8
:1042200023F4164323F00C031343CB600268536955
:1042300023F4407381690B4353610368314A93420D
:1042400006D002F58062934202D0FFF7E1F901E067
:10425000FFF7EEF9E369B3F5004F29D00021031809
:1042600049411B1841F10001C90041EA5371DB00CB
:10427000181863684FEA83024FEA937341F1000113
:10428000FCF7DCFB204DA5FB00325109642303FB46
:1042900011031B013233A5FB03235B0903F0F0027A
:1042A00002EB011203F00F03216813448B6038BD49
:1042B0000023021843EB0301121841F10001C90069
:1042C00041EA5271D200101841F10001626892185F
:1042D0005B41FCF7B3FB0C4DA5FB00325109642395
:1042E00003FB1103DB003233A5FB03235B095A00F8
:1042F00002F4F87202EB011203F007032168134481
:104300008B60D4E7001001401F85EB512DE9F84385
:1043100005460F4616469946DDF820802C6824682D
:1043200037EA04030CBF4FF0010C4FF0000CB4450A
:104330002DD1B8F1FF3FF1D0B8F1000F05D0FEF755
:104340000DF8A0EB09004045E8D92A6802F10C03FA
:1043500053E8003F23F4D0730C3242E800310029C7
:10436000F3D12A6802F1140353E8003F23F001035C
:10437000143242E800310029F3D1202385F83D3082
:1043800085F83E30002385F83C30032000E0002013
:10439000BDE8F88358B310B5044690F83D300BB330
:1043A000242384F83D302268D36823F40053D3607B
:1043B0002046FFF723FF2268136923F4904313611B
:1043C0002268536923F02A0353612268D36843F4B7
:1043D0000053D36000202064202384F83D3084F80B
:1043E0003E3010BD80F83C30FDF708FFD8E70120D3
:1043F00070472DE9F04182B01E4690F83D30DBB2A7
:10440000202B54D104460D469046002953D0002A53
:1044100053D090F83C30012B51D0012380F83C3030
:1044200000230364212380F83D30FDF797FF074602
:10443000A4F82480A4F82680A368B3F5805F05D093
:104440004FF00008002384F83C3012E0236913B1D8
:104450004FF00008F6E7A8460025F3E738F8023BDE
:104460002268C3F308035360E28C92B2013A92B21D
:10447000E284E38C9BB273B100963B46002280211C
:104480002046FFF743FFE0B9002DE7D015F8012BD8
:1044900023685A60E8E700963B4600224021204608
:1044A000FFF734FF78B9202384F83D3000E0022084
:1044B00002B0BDE8F0810120FAE70120F8E7022010
:1044C000F6E70320F4E70320F2E72DE9F04182B09C
:1044D0001E4690F83E30DBB2202B5CD104460D46E0
:1044E000904600295BD0002A5BD090F83C30012B2D
:1044F00059D0012380F83C3000230364222280F845
:104500003E200363FDF72AFF0746A4F82C80A4F899
:104510002E80A368B3F5805F05D04FF0000800231C
:1045200084F83C3017E0236913B14FF00008F6E738
:10453000A8460025F3E723685B68C3F3080328F85F
:10454000023B03E023685B682B700135E28D92B279
:10455000013A92B2E285E38D9BB2BBB100963B4635
:10456000002220212046FFF7D1FEF0B9002DE2D035
:10457000A368B3F5805FE5D013B92369002BE1D0C0
:1045800023685B6803F07F032B70DEE7202384F849
:104590003E30002000E0022002B0BDE8F0810120A2
:1045A000FAE70120F8E70220F6E70320F4E700002D
:1045B000DFED1F7A20EE270AB5EEC00AF1EE10FA01
:1045C000FDEEC07A04D517EE903A013B07EE903A23
:1045D000F8EEE77A9FED177A30EE670A20EE070AC9
:1045E000FCEEC07A17EE903A9BB2B3F5007F1AD278
:1045F00007EE903AF8EE677A591C30EE670A0E4AD9
:10460000F7EE007A02EB830302EB810293ED007A6E
:10461000D2ED006A77EEC07A20EE260A67EE877A3E
:1046200037EE800A704730EE470A01210023E6E7A3
:1046300083F9223E00000044E0A90008DFED217A62
:1046400020EE270AF5EE007A30EE270AB5EEC00A12
:10465000F1EE10FAFDEEC07A04D517EE903A013B68
:1046600007EE903AF8EEE77A9FED177A30EE670A98
:1046700020EE070AFCEEC07A17EE903A9BB2B3F533
:10468000007F1AD207EE903AF8EE677A591C30EEA6
:10469000670A0E4AF7EE007A02EB830302EB81020F
:1046A00093ED007AD2ED006A77EEC07A20EE260A0A
:1046B00067EE877A37EE800A704730EE470A0121AD
:1046C0000023E6E783F9223E00000044E0A9000849
:1046D000014B1868704700BF0C00002070B50D4EEC
:1046E0000D4D761BB61006D0002455F8043B01345E
:1046F0009847A642F9D1094E094D761B06F050F9AC
:10470000B61006D0002455F8043B01349847A64261
:10471000F9D170BDE8B50008E8B50008F0B50008AB
:10472000E8B50008830730B548D0541E002A3FD0B2
:10473000CAB2034601E0013C3AD303F8012B9D07BE
:10474000F9D1032C2DD9CDB245EA05250F2C45EA28
:10475000054536D9A4F1100222F00F0C03F1200E0A
:10476000E6444FEA121C03F1100242E9045542E903
:10477000025510327245F8D10CF1010214F00C0F01
:1047800003EB021204F00F0C13D0ACF1040323F07E
:1047900003030433134442F8045B9342FBD10CF04F
:1047A00003042CB1CAB21C4403F8012B9C42FBD178
:1047B00030BD64461346002CF4D1F9E70346144695
:1047C000BFE71A46A446E0E70FB400B5074983B037
:1047D00004AB086853F8042B8168019300F0E0F8FB
:1047E00003B05DF804EB04B0704700BF0C0000207C
:1047F0002DE9F043694CD4F8008083B004460E469E
:1048000017461D46B8F1000F03D0D8F83830002BFA
:1048100077D0022F05D0012F00F2AC80002DC0F21E
:10482000A980636EDA0752D52146404603F006F8A8
:10483000216B41B104F14003994202D0404603F09C
:1048400029F900232363B4F90CC000231CF0800F66
:10485000A361636064D12CF44A6C2CF0030C022F2A
:10486000A4F80CC06AD001AB6A462146404603F06A
:10487000B7FAA3891843A081002D2FD0002E2ED087
:10488000D8F83830002B38D0009B2660AB42B4F902
:104890000C301CBF43F40063A381012F04BF43F01D
:1048A0000103A3819AB213F00803C4E904652CD074
:1048B000D1075DD56D42A561656E002315F0010538
:1048C000A36027D00025284603B0BDE8F083A38964
:1048D0009B05A9D4A06D03F00FFAA5E7009D28461B
:1048E00003F0AEFA0646002847D0A38943F08003C0
:1048F000A381D8F83830002BC6D1404602F0D2FF51
:10490000C2E7404602F0CEFF83E7A360656E15F074
:104910000105D7D1930524D5284603B0BDE8F0831F
:104920002169404603F0B6F8B4F90CC02CF44A6C87
:104930002CF0030C022FA4F80CC094D10025002207
:1049400004F14303A2600122C4E904322360636ED0
:104950004CF0020CD807A4F80CC0DDD41CF4007F86
:10496000DAD1A06D03F0CAF9284603B0BDE8F083A0
:10497000A560CBE74FF0FF35CEE7DDF80090A94505
:1049800004D0484603F05CFA064620B9B4F90CC0DE
:104990004FF0FF35D3E74D46A7E700BF0C000020DE
:1049A0002DE9F04F2DED0A8BCFB01C460AEE101A00
:1049B00091460AEE900A054603F096F903681393B0
:1049C00018460994FCF7BCFA12901DB1AB6B002B92
:1049D00000F048821AEE102A536EDB0740F147813F
:1049E000B2F90C309AB2960409D41AEE101A43F4B4
:1049F00000538B819AB24B6E23F400534B6615071C
:104A000040F1CC801AEE103A1B69002B00F0C680F2
:104A100002F01A030A2B00F0D2804D469FED9C7BDA
:104A20002B78002425AACDE92344CDE91544CDE90E
:104A300017448DED107B1AEE909A0E9422929046B8
:104A400014940694002B00F0B081AB4604E01BF8F0
:104A5000013F002B00F0CD80252BF8D1BBEB0506E4
:104A600040F0CB809BF80030002B00F09E810023AB
:104A70004FF0FF329BF801708DF86B3005930BF10E
:104A8000010B04929A462B2420210BF1010BA7F174
:104A900020035A2B00F20081DFE813F00A03FE0026
:104AA000FE000503FE00FE00FE006A00FE00FE00A0
:104AB00076029E02FE008102A802FE00A3025B00B5
:104AC0005B005B005B005B005B005B005B005B000E
:104AD000FE00FE00FE00FE00FE00FE00FE008E0155
:104AE000FE001602ED018E018E018E01FE00FE0019
:104AF000FE00FE000003FE00FE004502FE00FE0078
:104B0000FE002002FE00C202FE00FE009907FE0029
:104B1000FE00FE00FE00FE00FE00FE00FE008E0114
:104B2000FE001602EF018E018E018E01E602EF01FA
:104B3000E801FE00F302FE0086024702D402E8010B
:104B4000FE0020027D007507FE00FE007907FE00D2
:104B50007D00A7F1300300221BF8017B02EB8202EB
:104B600003EB4202A7F13003092BF5D905928EE73A
:104B7000484603F0B9F8436817931846FCF7E0F984
:104B800018900646484603F0AFF883681593202135
:104B9000002E40F0E9869BF8007076E71AEE101AB6
:104BA0001AEE900A1AEE105A01F002FD002841F0A8
:104BB0002783AA8902F01A030A2B7FF42EAF1AEE7C
:104BC000101AB1F90E30002BFFF627AF4B6ED90744
:104BD00002D4920541F15A811AEE101A1AEE900A87
:104BE00023464A464FB0BDEC0A8BBDE8F04F01F0BA
:104BF0009FBCBBEB050600F0D880249B3344249374
:104C0000239B0133072BC8E90056239305DC08F1E9
:104C10000808069B3344069324E71AEE101A22AACA
:104C2000484604F085F890B90DF19408F1E71AEEC2
:104C3000101A22AA484604F07BF8002800F0A6804B
:104C4000089B23B11AEE900A194602F023FF1AEED0
:104C5000102A536ED80740F1FA8093895A0601F161
:104C6000D88206984FB0BDEC0A8BBDE8F08FB2F940
:104C70000C309F059AB23FF5B6AE1AEE105AA86DE9
:104C800003F03AF8B5F90C309AB2ACE6AFF3008015
:104C90000000000000000000002F00F086800023CC
:104CA0008DF8D4708DF86B300122CDE90723039283
:104CB00004930C930F930D9335AD1AF002020A92F0
:104CC00002D0039A023203921AF084020B9205D1A9
:104CD000059A0399561A002E00F36883249C8BB121
:104CE000239B0DF16B0201330134C8F80020072B20
:104CF0004FF0010224942393C8F8042000F39F830B
:104D000008F108080A9B83B1239B1BAA01330234D4
:104D1000C8F80020072B4FF0020224942393C8F810
:104D2000042000F3998308F108080B9B802B00F006
:104D30006A82049B079A9E1A002E00F3AB821AF433
:104D4000807F40F00682079BC8F804301C44239BF8
:104D5000C8F800500133072B2494239300F31983E0
:104D600008F108081AF0040F05D0059B039A9D1A54
:104D7000002D00F38583DDE9052303998A42ACBF4A
:104D80009B185B180693002C7FF451AF00232393EC
:104D9000089B1BB10899484602F07CFE0DF194086F
:104DA0005D462B78002B7FF450AE249B002B41F006
:104DB0001B82002323934AE7099B073323F0070351
:104DC000B3EC027B8DED107BDDE91012099322F02C
:104DD00000430BEE101A0BEE903A4FF0FF32B0EE9C
:104DE0004B9AF0EE6B9AB74B51EC190BFCF79EF90E
:104DF000002840F0E884B34B51EC190B4FF0FF3220
:104E0000FCF776F9002840F0DE84DDE9100100228D
:104E10000023FCF763F9002840F067879DF86B30AA
:104E2000A94DAA4A2AF0800A0321472FC8BF154678
:104E3000002208920391079104920C920F920D9216
:104E4000002B3FF43AAF039A0132039235E793897E
:104E500099053FF503AF1AEE104A906D02F04EFF30
:104E6000A389FBE6284602F01DFDB3E59BF8007020
:104E70004AF0200A09E64AF0100A1AF0200F099BAE
:104E800000F04084073323F007031A465B6852F8AA
:104E9000084B09921E46002BC0F24384049B013349
:104EA00000F0BC822AF08003039354EA060340F02A
:104EB000B782049B002B40F0B882DDF80CA00023E1
:104EC000049307934EAD1FE1099A002352F8041B87
:104ED0008DF86B308DF8D4100992E5E6099C54F8F2
:104EE000045B00268DF86B60002D00F08F85049B1D
:104EF0005A1C00F051861A4631462846FBF720FF1F
:104F00000890002801F02F81089B0496591B0791F7
:104F100021EAE1719DF86B300994039108960C9693
:104F20000F960D968CE74AF0100A1AF0200600F052
:104F3000C983099B073323F007035E6853F8084BC6
:104F400009932AF480630393002300228DF86B20D9
:104F5000049A551C00F0C080039921F0800A54EA9D
:104F6000060140F0B780002A40F00786002BA6D14A
:104F7000039B13F00103079300F0148430238DF892
:104F800037310DF23715BFE0099B53F8042B05921A
:104F9000002A80F2D583059A0993524205929BF824
:104FA00000704AF0040A70E51AF0200F40F0D18436
:104FB0001AF0100F40F0E7851AF0400F40F0A98674
:104FC0001AF4007F00F0DF85099B069953F8042B43
:104FD000099311705D46E4E69BF800708DF86B4014
:104FE00053E59BF800704AF0800A4EE55A4612F8E5
:104FF000017B2A2F01F06F82A7F13003092B934622
:1050000098BF002201F2EC801BF8017B02EB8202C8
:1050100003EB4202A7F13003092BF5D9049236E5E0
:105020004AF010030393039B13F0200600F059830A
:10503000099B073323F007035E6853F8084B099375
:10504000012382E7099B53F8044B099330234AF06C
:10505000020278278DF86C301D4B149303928DF863
:105060006D700026022370E79BF80070682F03BF65
:105070009BF801704AF4007A0BF1010B4AF0400AE8
:1050800003E59BF800706C2F03BF9BF801704AF09A
:10509000200A0BF1010B4AF0100AF6E49BF80070AD
:1050A0004AF0080AF1E49BF800704AF0010AECE4C7
:1050B0009DF86B30002B7FF46EAD9BF800708DF87F
:1050C0006B10E2E4FFFFEF7FE8B10008ECB10008ED
:1050D000F8B10008CDF80CA0012B00F0A181022B43
:1050E0004EAD20D1149A04F00F032409D35C05F8C7
:1050F000013D44EA0674360954EA0603F3D14EAB87
:105100005B1BDDF80CA00793049907989DF86B30A2
:1051100081424FF00002B8BF0146089203910C9201
:105120000F920D928CE604F00703E40844EA4674FB
:10513000F608303354EA06012A4605F8013DF2D15B
:105140000399CC0700F175824EAB5B1B8A4607932F
:10515000DAE7652F40F3D780DDE910010022002354
:10516000FBF7B2FF002800F0C681239BC14AC8F8B4
:105170000020013301340122072B24942393C8F823
:10518000042000F3DE8408F108081C9B0E9A934269
:1051900080F2D182129B139A1C44C8E90023239BFE
:1051A00024940133072B239300F3228408F1080889
:1051B0000E9B5D1E002D7FF7D5AD102D239B41F377
:1051C0006981AD4F0A97224610261AEE104A05E073
:1051D00008F10808103D102D40F3C184013310324E
:1051E000072BC8E90076CDE92332F1DD22AA21465A
:1051F000484603F09DFD00287FF422ADDDE923320F
:105200000DF19408E6E7059B039A9E1A002E7FF79E
:1052100090AD102E239B41F33F8097490B9522467A
:105220001AEE105A0A910C4604E0103E102E08F1B6
:10523000080819DD013310321021072BCDE9233284
:10524000C8F80040C8F80410EFDD22AA29464846F5
:105250000DF1940803F06CFD00287FF4F1AC103ED2
:10526000102EDDE92332E5DC0B9D144601330A9A4A
:10527000C8F800203444072BCDE92334C8F8046073
:1052800000F3A883049B079A9E1A002E08F10808D1
:105290007FF755AD102E239B40F30F8576480A907B
:1052A000424621461AEE108A044604E0103E102EB3
:1052B00002F1080216DD013310311020072BCDE971
:1052C000233114605060F1DD22AA4146484603F0C4
:1052D0002FFD00287FF4B4AC103E102EDDE9233101
:1052E00025AAE8DC90460C4601330A9AC8F800204B
:1052F0003444072BCDE92334C8F8046000F3D4818B
:1053000008F108081BE50E9B012B40F37381239ED7
:10531000C8F80050013601340123072E2494239647
:10532000C8F8043000F3968308F10808129B139A1A
:1053300001361C44072EC8E90023CDE9236400F39D
:10534000978308F10808DDE9100100220023FBF72C
:10535000BBFE002840F07B810E9B0136013B0135EE
:105360001C44072EC8F800502396C8F80430249433
:1053700000F3518108F10808169BC8F80430013683
:105380001C44072E1EABCDE92364C8F800307FF71C
:10539000E7AC1AEE101A22AA484603F0C9FC00280E
:1053A0007FF44EAC249C0DF19408DBE4102EDDE973
:1053B000233222DD199510241AEE105A04E0103E13
:1053C000102E08F1080817DD01332C491032072B85
:1053D000C8E90014CDE92332F1DD22AA2946484666
:1053E0000DF1940803F0A4FC00287FF429AC103ED2
:1053F000102EDDE92332E7DC199DC8F80460013383
:10540000B418072B1D4AC8F80020CDE9233400F357
:105410007D839DF86B3008F1080860E4CDF80CA09E
:105420000A2C76F1000380F0318330340123DDF85B
:105430000CA08DF8374107930DF2371564E61AEE8C
:10544000101A22AA484603F073FC00287FF4F8AB38
:10545000249C0DF1940855E41AEE101A22AA48462D
:1054600003F066FC00287FF4EBAB249C0DF194085C
:105470005BE400BF28B200083CB200082CB2000870
:10548000102D239B20DD1AEE107A102604E0103D2B
:10549000102D08F1080817DD0133AC4A1034072B32
:1054A000C8E90026CDE92334F1DD22AA3946484671
:1054B0000DF1940803F03CFC00287FF4C1AB103DD3
:1054C000102DDDE92334E7DC0133A04AC8F804508D
:1054D0002C44072BCDE92334C8F800207FF74BACD0
:1054E0001AEE101A22AA484603F022FC00287FF484
:1054F000A7AB249C3FE41C9A002A40F32B81DDE9F2
:105500000D739F42A8BF1F46002F0BDD239B013365
:105510003C44072BC8E900572494239300F3D58516
:1055200008F108080D9E002FA8BFF61B002E00F3FF
:1055300044830D9B1AF4806F2B44079340F0E3845F
:105540001C9B0E9A934203DB1AF0010F00F0D283EA
:10555000129A13991444C8E90012239A2494013230
:10556000072A239200F3BF8508F108080E9A0799CD
:10557000AE18761AD51AAE42A8BF2E46002E0DDD03
:10558000239BC8F8001001333444072BC8F804608B
:105590002494239300F3098608F10808002EA8BF7D
:1055A000AD1B002D7FF7DEAB102D239B40F37287E0
:1055B000674F0A97224610261AEE104A05E008F1B6
:1055C0000808103D102D40F3CA8201331032072B1A
:1055D000C8E90076CDE92332F1DD22AA214648460A
:1055E00003F0A6FB00287FF42BABDDE923320DF19D
:1055F0009408E6E71AF0010F7FF489AE239EC8F8FD
:105600000050013601340123072E24942396C8F854
:1056100004307FF7AFAE1AEE101A22AA484603F004
:1056200087FB00287FF40CABDDE923640DF19408BF
:10563000A2E6302B3FF463AD3023023A05F8013C7B
:105640004EAB9B1ADDF80CA0079315465CE50E9B4C
:105650005D1E002D7FF790AE102D40F321873C4A50
:10566000CDF810A023461AEE10AA0A92102714466D
:1056700005E008F10808103D102D40F3E3820136E3
:105680001033072EC8E90047CDE92363F1DD22AAD4
:105690005146484603F04CFB00287FF4D1AADDE9CF
:1056A00023630DF19408E6E71AEE101A22AA484681
:1056B00003F03EFB00287FF4C3AA249C0DF194085C
:1056C000FFF73DBB1AF0100340F03D811AF0400295
:1056D00000F0C882099A52F8044B09921E46A4B2FF
:1056E0002FE4039B13F0100366D1039A12F04002DB
:1056F00000F0C682099A52F8044B09921E46A4B2E1
:10570000012322E453F8044B09931AF0100F4FD1F0
:105710001AF0400F48D044F3C036334624B2FFF7A6
:10572000BABB2D2364428DF86B3066EB4606CDF88C
:105730000CA001230CE41AF0010F3FF413AB29E590
:105740009BF800700993FFF7A0B900BF2CB20008C6
:105750003CB20008239BB649C8F80010013301345D
:105760000121072B24942393C8F8041000F38484A8
:1057700008F10808002A40F046820E9A0AF0010358
:1057800013433FF4EFAA129B139A1C44C8E9002369
:10579000239B24940133072B239300F3688308F1A0
:1057A000080841E24EADAFE41AF4007F40F0AB824E
:1057B000E6173346FFF76FBB099B53F8044B099379
:1057C0000123FFF7C2BBDDE9100102460B46FBF7E0
:1057D000ADFC002840F02E86612F00F07F85412F20
:1057E00000F0A082049B013327F02003039300F014
:1057F000C085472B00F0AB85DDE910014AF48072CB
:10580000002907924FF00003C0F2458441EC180BC9
:105810000A930893039B462B00F07484452B00F0F9
:105820002585B0EE480AF0EE680A20AB01931DAB67
:105830000093049A1CAB0221484600F0C9FF039B69
:10584000472B054640F05E861AF0010F5646DDF8FC
:105850001CA040F0E384209B5B1B0E93039B472B13
:1058600000F01B83039B462B00F089841C9B0D9347
:105870000D9B039A013B412A1C9300F0E985FAB283
:105880000021002BB8BF0D9B8DF87820BABFC3F163
:1058900001032D222B22092B8DF8792040F36D85F1
:1058A0000DF18704DFF898C1224610468CFB0321D6
:1058B000DA17C2EBA10202EB8201A3EB4101303106
:1058C00000F8011C19466329134600F1FF32ECDC95
:1058D0003033D9B2831E9C4202F8011C40F20E867E
:1058E00013460DF17A0201E013F8011B02F8011BC7
:1058F0009C42F9D10DF189030DF17A021B1A134470
:105900001EAA9B1A16930E9B169A012B1A440792F5
:1059100040F3B285079B129A13440793079A00231A
:1059200026F4806622EAE27246F4807A0C930392AF
:105930000F930D930A9B002B40F0DE8204939DF899
:105940006B30FFF77DBA099B53F8044B0993FFF7BF
:10595000F8BA099B069853F8041B0993C217C1E9CA
:1059600000025D46FFF71DBA159B002B3FF413A9FB
:10597000159B1B78002B3FF40EA99BF800704AF48E
:10598000806AFFF782B8CDF80CA0FFF74CBB294B1B
:1059900014931AF0200655D0099B073323F0070310
:1059A0005E6853F8084B09931AF0010F09D054EAC6
:1059B000060306D030238DF86D704AF0020A8DF888
:1059C0006C302AF4806303930223FFF7BEBA1A4BAC
:1059D0001493DEE71AEE101A22AA484603F0A8F93B
:1059E00000287FF42DA9249C0DF19408FFF7A1B99C
:1059F0001AEE101A22AA484603F09AF900287FF4FA
:105A00001FA9249C0DF19408FFF7D2BB049A0895B6
:105A1000062A294628BF062204952B460392074DE5
:105A2000099407920C910F910D91FFF709BA00BFED
:105A300028B20008F8B100080CB2000820B2000833
:105A4000676666661AF0100370D0099B53F8044B22
:105A50000993A9E71AEE101A22AA484603F068F93A
:105A600000287FF4EDA8DDE923640DF194085DE4DE
:105A70001AEE101A22AA484603F05AF900287FF4B9
:105A8000DFA8DDE923640DF194085CE4039B0022A8
:105A900003F48063CDE9077809EE109A0DF59C7A3E
:105AA000DDF85490174698460CE000232046314616
:105AB0000A22FAF7C3FF0A2C76F100031CD304462E
:105AC0000E46AA4620460A2200233146FAF7B6FFC0
:105AD00030320AF1FF3501370AF8012CB8F1000F16
:105AE000E3D099F800309F42DFD1FF2FDDD00A2CA0
:105AF00076F1000380F0E580CDF854900E97DDF844
:105B00002080079F19EE109AFFF7F9BA1AEE101AC3
